:020000040000FA
:2000000000000420991C0000C11C0000C31C0000C51C0000C71C0000C91C000000000000A2
:20002000000000000000000000000000CB1C0000CD1C000000000000CF1C0000D11C000018
:20004000D911000089100000D9060000D31C0000D31C0000D31C0000DD160000D31C00008F
:200060002D060000D31C0000D31C000015130000D31C0000D1180000D31C0000D31C000091
:20008000FD180000D31C0000D31C0000D31C0000D31C0000D31C0000D31C0000D31C0000C2
:2000A000D31C0000D31C0000D31C0000D31C0000D31C0000D31C00000000000000000000A6
:2000C000D31C0000D31C0000D31C0000D31C0000D31C0000D31C0000D31C0000D31C0000A8
:2000E000D31C0000D31C0000D31C00000000000000000000D31C000000000000D31C000055
:200100000000000000000000000000000000000000000000000000000000000000000000DF
:200120000000000000000000000000000000000000000000000000000000000000000000BF
:2001400000000000000000000000000000000000000000000000000000000000000000009F
:2001600000000000000000000000000000000000000000000000000000000000000000007F
:2001800000000000000000000000000000000000000000000000000000000000000000005F
:2001A00000000000000000000000000000000000000000000000000000000000000000003F
:2001C00000000000000000000000000000000000000000000000000000000000000000001F
:2001E0000000000000000000000000000000000000000000000000000000000000000000FF
:2002000001F0FF01102A2BDB10F0070F08D010F8013B013A8B422DD010F0070F42B3F6D1A4
:20022000F0B441EA012141EA014122F007047FF000070023F0E80256083C85EA010586EA51
:20024000010685FA47F5A3FA87F586FA47F6A5FA87F68EB9EED1F0BC01F0FF0102F007024C
:2002600032B110F8013B013A83EA010313B1F8D10020704701387047002D06BF35460338AF
:20028000073815F0010F07D1013015F4807F02BF013015F4C03F0130F0BC0138704700BF73
:2002A00010B5054C237833B9044B13B10448AFF300800123237010BDC402002000000000B6
:2002C0008C66000008B5034B1BB103490348AFF3008008BD00000000C80200208C660000FB
:2002E000A3F5803A704700BF174B002B08BF134B9D46FFF7F5FF00218B460F461348144AB7
:20030000121A05F035FD0E4B002B00D098470D4B002B00D098470020002104000D000D487E
:20032000002802D00C48AFF3008000F02BF82000290001F0CFFC00F011F800BF0000080075
:20034000000000000000000000000420C402002070100020000000000000000008B5074BE4
:20036000044613B10021AFF30080054B1868836A03B19847204600F029F800BF00000000A6
:20038000B060000070B50D4D0D4C641BA4100026A64209D10B4D0C4C05F07EFE641BA41006
:2003A0000026A64205D170BD55F8043B98470136EEE755F8043B98470136F2E7BC0200205C
:2003C000BC020020BC020020C0020020FEE700BF08B502F075FDBDE8084002F02BBD00BF34
:2003E00000B585B002F0D8FB002002F0C3FA00F041F902F099FC4CF6F46136224FF08053CD
:20040000ADF808108DF80A20D3F8A8208DF80B200422D3F8A43001930DEB020103A805F039
:20042000BDFC02A90822034805F0B8FC05B05DF804FB00BF4C1000200148002101F0DEBFFE
:200440001002002010B500F0A5F90446BFF35F8F02F062F800B930BFBFF35F8F2046BDE88E
:20046000104000F09BB900BF802802D1024B00221A600120704700BF04C50040012070474D
:2004800030B5134C0123236083B000F0C3F86FF003031D1A03E000F0BDF8C54203D5D4F8C4
:2004A0000031002BF7D00A4B0022C3F80021D3F80825D3F80835920544BF6FEA83536FEAA4
:2004C0009353034A019301235360019803B030BD00C0004070B570B10E46451E002404E040
:2004E000A64206D000F0B2F8013415F8010F0028F6D1204670BD0446FBE700BF30B5174B9E
:2005000083B000221A6001F07DFB00BB002001F095FB134B134A93E80300FF250090ADF8B5
:200520000410062400231048ADF8005069468DF802408DF8043000F085FE58B901210A48E6
:2005400000F0D2FE084800F0C3FE03B030BD00F0D1FDDBE700F0CEFDF0E700BFE002002067
:200560000C6100009905000014610000014B1868704700BFE002002008B5064A13680133FB
:20058000136001F021FE00B908BDBDE8084001F0F1BD00BFE0020020042800D07047FFF764
:2005A000EBBF00BF30B4154A154B16490020106082B012680192019AD3F8102522F00F0243
:2005C00042F00802C3F81025D3F8082542F00302C3F80825D3F804254FF480704FF48035B9
:2005E00022F003020124C3F80425C3F80453C1F8800108601C6002B030BC70474081004055
:200600000080004000E100E0014BC3F84005704700800040034A044B01211160D3F8440553
:20062000704700BF4480004000800040064B1A6802B97047002282B01A601B680193019BBA
:2006400002B001F01FBE00BF40810040074B084AC3F81C0582B01368002BFCD000231360A0
:2006600013680193019B02B0704700BF002000401C21004030B4144B1448154D4FF0A041A9
:2006800000220324C3F80025C1F818474024C1F80845C1F8202708240621C3F8245582B0F6
:2006A000C3F86C25C3F81445C3F80C15026001680191019C074A04200121C3F8000511603C
:2006C00002B030BC704700BF002000401C21004000E0D70108200040074B0849084A0020F4
:2006E000186082B01B680193019BD1F818051368C0B202B0184700BF082100400020004031
:20070000E40200204FF0A0434FF4F0310022C3F80815C3F80C25704700B5104B93E807001E
:2007200085B001AB83E807000D49184601F0FAF848B90C4801F030F960B90B4B01221A7044
:2007400005B05DF804FB00F0D5FC064801F024F90028F2D000F0CEFCEFE700BF1C610000BD
:20076000050700000A1000200B100020024B1B7803B9704701F002B90B100020034B1B78DD
:2007800003B97047024B187801F02CB90B1000200A100020EFF3108072B6704780F3108862
:2007A000704700BF00F01F030121C0F34710994002F068BB08B500F04FFE00B108BDBDE882
:2007C000084000F0FFBD00BF30B583B01446022301F01F0100228DF8063014F00C0341EAA3
:2007E0004015ADF8042006D0042B25D0082B27D00C2B02D103238DF8043014F0030304D0F0
:20080000022B15D0012B02D103238DF805300E4A01A9284600F02AFE2306284603D400F001
:2008200023FF03B030BD012100F0B2FE03B030BD01238DF80530EAE701238DF80430DCE745
:2008400002238DF80430D8E7A507000001F01F0141EA40101F28CABF054B4FF0A04300F091
:200860001F00D3F8101521FA00F000F00100704700030050024B0022C3F8FC2F0120704736
:2008800000100040A1B1182810D8DFE800F00D770F0F6E65605B453F3A0F0F0F36322E2AFC
:2008A0000F26221E1A1713000020704701207047022070477D230B6000207047002008608D
:2008C000704710230B60002070470A230B600020704720230B600020704703230B60002047
:2008E000704708230B6000207047D8230B60002070471A230B60002070470B230B6000205F
:200900007047244B1B780B6000207047224B93F900300B6000207047204B214A012082B048
:2009200018601368002BFCD00020106012681D4B0192019AD3F8483503F07F035B420B6068
:2009400002B07047184B5B790B6000207047164B5B780B6000207047134BDB780020086006
:20096000002BA1D001230B6070470F4B1B7800200860002B98D004230B607047094B0B4A9B
:20098000D3F80835A2FB03239B080A33DBB20B60002070470C1000200D1000201410004000
:2009A0001C11004000100040D0010020CDCCCCCC0120704770B582B0FFF7ECFEBFF35F8FA9
:2009C0001A4B1B788BB11A4B1A4902224FF0FF34C1F80843C3F88021C3F88020BFF35F8F2A
:2009E00002B0BDE87040FFF7D9BE134903F0FF020A600968114B019101991A601A680D495E
:200A00000B4B00924FF0FF3502224FF44054009EC1F80853C3F88021C1F804431A60BFF346
:200A20005F8F02B0BDE87040FFF7B8BED001002000E100E00010004030110040341100404D
:200A4000144BD3F8FC0F28B1D3F85035DBB2032B01D000207047104B1B7803F0FF0073B1D1
:200A60000E4B1B78053B7A2BF3D80D4B1B68002BEFD10C4B1868B0FA80F040097047074AD2
:200A80001378053B7A2BE5D892F8800080F00100704700BF00100040D0010020E8020020ED
:200AA00030110040341100400C2801D001207047042A05D121B1034B1B680B60002070476A
:200AC000022070476C03002070B51B4CD4F85055EDB2032D82B028D0184B1948194AC4F8D5
:200AE00004051949C3F8102501264FF00062C3F81415C3F80465C3F80425FFF75BFFD4F8CB
:200B0000003243F01003C4F80032D4F80032022D43F40023C4F8003209D00C4B0C4A002153
:200B200019601B680193019B166002B070BD094B1E6002B070BD00BF0010004000F0014043
:200B4000E8020020381100404C80004058110040041000400810004070B52F4D2F49304A0E
:200B6000304B00242C6084B02D680095009D0C600968019101991460126802922A4D029AB1
:200B80001C6029781B6803934B1F7A2B039A38D88C1E2246691C05F001F92B195B783F2B5C
:200BA0002DD89B00DBB2214E214A3370D2F84835204A03F07F035B425BB299B204201370C9
:200BC00002F0FAFA3178032002F0F6FA1A4B2A781A491A74D1F84C055860D1F84815996098
:200BE0005200DA605D68104881220021023D1D6005F0BEF8FFF768FF204604B070BDFF235B
:200C0000D1E781222146284605F0B2F8FFF75CFF204604B070BD00BF381100400C110040C8
:200C20003411004030110040E80200200C100020001000400D1000206C030020008000408C
:200C400010B5038804461BB340F2C732934224D1822901D0012010BD124A1378053B7A2B01
:200C600016D8114B1B6813B992F8803083B1FFF785FD02F04BFA02F003FA8021FFF76CFFCD
:200C8000002805DD80B202F0F5F9084BDB68984740F2C7332380012010BD0023038003203D
:200CA00010BD00BFE802002030110040EC6300007D2910B50C4609D801460A48A31C00F8E0
:200CC000013B224605F06AF8002010BD064A0749074803F0BBFB21467D22064803F0B6FB9C
:200CE000012010BD8003002028610000386100003C6100004C61000030B5264C264A2748C1
:200D00000F23C4F8103593780A3B03EB8303C4F808351179D579937952791B0643EA0523BE
:200D20000B4385B043EA0243002140F20222C4F86C36C4F83425C4F838050D22C4F83C159F
:200D4000684605F015F89DF807309DF801009DF802109DF804205B0743EA002343EA0143FE
:200D600043EA825343F0C06343F00803C4F814359DF80A309DF809201B0443EA022343F0A7
:200D80007F0340F20122C4F81835C4F8502605B030BD00BF00100040D0010020211001006D
:200DA00008B5084BD3F8FC2F1AB1FFF78DFE012008BD0122C3F8FC2FFFF79EFFFFF784FEE7
:200DC000012008BD0010004030B585B0FFF7E8FF104A11491148124C0023136015680395D0
:200DE000039D0B600D680295029D03600368019301230198236001E00B6813B91368002BD5
:200E0000FAD0044A044B10681B68B0FA80F0400905B030BD48110040441100404C110040A0
:200E20002C10004010B5072854D8DFE800F01922535348353C042B4A2B48C9B25171D0F8D4
:200E4000FC3F5BB11179D479937952791B0643EA04230B4343EA0243C0F86C36002010BD21
:200E600001293BD0002937D11F4BC3F8FC1F084610BDA1F10B030F2B2ED81A4A1A4BC8B28E
:200E80009070D3F8FC2F002AE8D00A3901EB8101C3F80815002010BD31F001001CD1114B99
:200EA000C9B2D97010BD0F4A0F4BC9B25170D3F8FC2F002AD2D0C3F80C15002010BD31F006
:200EC000070409D1074BC1F380011970FFF772FD204610BD012010BD022010BDFFF760FF53
:200EE000002010BDD00100200010004010B57D2884B045D8294CFFF753FFE378002B39D1BC
:200F00006378274A2749DBB20120C2F80C350860D2F85035DBB2022BFAD12349234BC2F89C
:200F2000043500230B600868019001980B66086E029002988B648B6C0393039BD2F8003227
:200F4000012143F48023C2F800321160FFF762FB6FF002031C1AFFF75DFBE042FBD4104AB2
:200F6000D2F85035DBB20B2BFAD0FFF7ADFD002004B010BDFFF728FF0028C1D10220F7E77D
:200F80000B4A0C4904460C4803F060FA21460B4803F05CFA012004B010BD00BFD001002067
:200FA000001000400C1000400C1100408003002028610000386100003C61000068610000FD
:200FC00010B50C46FFF774FE2046BDE81040FFF78DBF00BF10B51A491A481B4A1B4C0023BD
:200FE0000B6003704B6023708B6082B0CB600B741360136800934FF0804301210098196058
:201000001368002BFCD0002414601368019321460F48019B01F0F2F9214681220D4804F02E
:20102000A7FE0D4B0122C3F8FC2FFFF765FE0B4A1378DBB21370FFF7BDFC204602B010BDCD
:201040006C0300200C100020000100400D100020C0010020E802002000100040D00100201B
:20106000074A1378053B7A2B07D8064B1B6813B992F880007047012070470020704700BF01
:20108000E802002030110040154B1B7803B1704700B503F0FF02134B196883B029B9124B6D
:2010A0001A6882B903B05DF804FB1A601B6800930E480F4B009A012283F8802003B05DF84C
:2010C00004EB01F055BA19601B68019381220848019B04F04DFE03B05DF804EBFFF7F4BC26
:2010E000D00100203011004034110040C0010020E802002000B585B00346002101AA44F2D9
:201100000100CDE90111039300F004F805B05DF804FB00BF72B6094B1B68DB0700D500BE48
:20112000BFF34F8F0649074BCA6802F4E0621343CB60BFF34F8F00BFFDE700BFF0ED00E0E4
:2011400000ED00E00400FA0572B6024A136801331360704700040020034A1368013B1360D7
:2011600003B962B6704700BF00040020044A137923B9012110609180184670478520704737
:2011800004040020074B1A68D20704D4C021012283F800131A604FF080430122C3F8182579
:2011A000704700BF00E100E010B4094B094A0021196083B01B680193019C4FF080410220EA
:2011C0000123C1F80403136003B05DF8044B7047040100400800004010B5174B1A6882B042
:2011E00062B10021154A19601B68507900934FF080410123009CC1F8083398B1104B1A682A
:20120000BAB100221A601B6801934FF0804202210A4B0198C2F808131B68012002B0BDE8CE
:2012200010401847116853718847054B1A68002AE7D102B010BD00BF000100400404002098
:201240000401004070B443791D4C1E4E03EB430546F82320655D7DBB90F904308A78002BF9
:2012600022DB03F1604303F561435201D2B283F8002390F90430144E012503F01F025B090C
:2012800005FA02F246F8232003680A88C3F8082543790879C97803EB4303E218E554507050
:2012A0009170002070BC7047084D03F00F0352011D44D2B22A76DCE7082070BC704700BF6B
:2012C0000C0400201004002000E100E0FCEC00E00368044A01211960437903EB43030221BA
:2012E000D15470470C04002010B403680022C3F8002183B0D3F80031026801930123019CC7
:20130000C2F8443311B10268C2F8043303B05DF8044B70472DE9F041274F284EDFF8A08047
:2013200084B000244FF48035D7F804332B4211D056F824200023E0B262B1C7F84853C7F896
:20134000085346F8243056F824300393D8F80030039A98470134032C4FEA4505E4D1164BEF
:20136000D3F80423D10702D5D3F80021C2B9124BD3F80423920710D5D3F804216AB100226B
:20138000C3F80421D3F804210D4B0192019A1B68052004B0BDE8F041184704B0BDE8F0819C
:2013A0000022C3F80021064AD3F80031029304201368029A9847DAE700B0004040B1004052
:2013C0001004002030B51F4C94F86A3083B0002B34D104F12F03204604F15F01FF2203F802
:2013E000012F8B42FBD14FF0FF3222600123072B88BFE11803F1010340F8042F88BF81F879
:2014000058200C2BF3D1062200210F4804F0B0FC0E4A0F4B0F49C02082F806034025002027
:20142000156018601B680193019D4FF00043012284F86A20C1F8043303B030BD082003B0F4
:2014400030BD00BF140400207804002000E100E07C61004000600040034B93F86A00003813
:2014600018BF0120704700BF14040020F0B4454F3B1893F93030002B5DDA91F802C0CCF3E3
:20148000400CBCF1000F0CBF0823002307EB8304A4F104040CBF0C26082602E001339E42F4
:2014A0004CD954F8045F0135F8D13C1847F8232084F83030BCF1000F4FD08A7854071AD481
:2014C000D5074ED41F284C7887BF2F4D00F01F0202464FF0A04502F5E072A40045F8224038
:2014E0002A4DC40800F0070C2E5D012202FA0CF232432A558A7812F0020222D09B0003F181
:20150000804303F5C0430978D3F8104524F44F3424F44074C3F8104502020904D3F8100504
:2015200001F4403102F47C520A430243C3F810250020F0BC70470820F0BC70470420F0BC21
:201540007047083B1F44097897F8603043EA811387F860301046F0BC7047FA1882F8580021
:20156000ABE71F2887BF084A00F01F0404464FF0A04202EB8402D2F8004724F00204C2F824
:201580000047ADE714040020000300507804002070B4324C251883B095F93030072B22DD18
:2015A000234493F858309B09032B46D0012B0CBF4FF400324FF440321F288ABF284B4FF066
:2015C000A04300F01F0003EB8000D0F8003723F44033C0F80037D0F800371A43C0F80027F8
:2015E00003B070BC7047DAB2072AF9D8980000F1804000F5C04003F140029200D0F8106584
:2016000092B202F1804202F5C04246F00106C0F810650020106012680192019A0029DFD05E
:2016200095F9302054F82220002AD9D00D49012202FA03F3C1F80433D2E71F288ABF084A75
:201640004FF0A04200F01F03D2F8102598BF0346DA4002F0010202321204ADE71404002093
:201660000003005000600040194B034493F93030072B13DD1F288ABF164B4FF0A04300F0BB
:201680001F0003EB8000D0F8003723F44033C0F80037D0F80037C0F800377047DAB2072AE3
:2016A00014D810B49A0002F1804202F5C0420A4CD2F81005012120F0010001FA03F3C2F81F
:2016C0001005C4F808335DF8044B7047704700BF1404002000030050006000402DE9F04FAD
:2016E000002289B0CDE9022216461546704B714C7148012204E0043383424FEA420211D06C
:2017000019680129F7D1D4F804131142F3D01D60196800910433834246EA020600994FEAC8
:201720004202EDD1654B1A68012A07D016F0FF0F17D1002E32DB09B0BDE8F08F00221A60C3
:201740001B6801934FF0A042019BD2F810255C4B0292D3F81035039316F0FF0F1ED046F09D
:201760000046584F01250024A30003F180432E4203F5C0434FEA45050BD0D3F8100557F8E0
:201780002420D3F81015C0F30520C1F3014102B190470134082CE7D1002ECCDA4FF0FF3357
:2017A000494D0DF1100ACDE906330022CAF804200492A5F16408454C0027012614F9010BF4
:2017C000431C32D0C0F3C20E08AB03EB0E0C00F007031CF8081C06FA03F31942C2B200F083
:2017E0003F0022D008EB0009910999F9309058F82990B9F1000F4CD003294CD01F288BBF19
:20180000DFF8BCE04FF0A04E02F01F0202460EEB82021CF818ECD2F800C71EEA030FCCF3CE
:20182000014C1BD1BCF1030F3CD0A542C6D1002F81D04FF0A0430299D3F81035204A994294
:20184000D2F8102503D1039991423FF474AFDDE90401CDE90232CDE90601ACE7BCF1020F2D
:20186000E3D1032904D0B9F1000FDED0C847DCE74FF4403CD2F8003723F44033C2F8003740
:20188000D2F8003701374CEA0303FFB2C2F80037E9E70329C9D11AF80EB04BEA030B0AF886
:2018A0000EB0ABE70329DED14FF4003CE2E700BF0061004000600040206100407C610040D7
:2018C00000030050140400207804002074040020074B0849084A0020186082B01B68019373
:2018E000019BD1F808051368C0B202B0184700BF00D1004000D000408004002010B5074CDC
:20190000236882B03BB1064B1B6898470023236023680193019B02B010BD00BF000101408A
:201920008404002070B5114B114A1D781160DDB9104E027801211970C6F80C254168044622
:201940004FF47A720023C803490C03F08FF9C6F80405237A084A5B01DBB24FF4803182F88D
:2019600010331160284670BD082070BD0F100020840400200000014000E100E0044B05493D
:2019800001220220C3F804231A600870704700BF000001400F10002010B504460020FFF713
:2019A000D3FB0E4A1378072B11D80D492370581C1070D1F80805012202FA03F30343C1F894
:2019C000083500240020FFF7C7FB204610BD04240020FFF7C1FB204610BD00BF0E10002071
:2019E00000000140034B044A00F5C07043F82020704700BF000001403546526E10B44FF075
:201A000080414FF080520020C1F80C015E4BC1F81001C1F83805D2F80414C3F82015D2F809
:201A20000814C3F82415D2F80C14C3F82815D2F81014C3F82C15D2F81414C3F83015D2F80E
:201A40001814C3F83415D2F81C14C3F84015D2F82014C3F84415D2F82414C3F84815D2F856
:201A60002814C3F84C15D2F82C14C3F85015D2F83014C3F85415D2F83414C3F86015D2F8A6
:201A80003814C3F86415D2F83C04C3F86805D2F840043E49C3F86C050968D2F84424C3F875
:201AA0007025082924D04FF08043D3F80024D20744BF6FF00102C3F80024354AD2F888305D
:201AC00043F47003C2F88830BFF34F8FBFF36F8F4FF01023D3F80022002A23DBD3F8043222
:201AE000002B1FDB2B4B2C4A1A605DF8044B70472A4B1B68002BD6D129482A4A2A4C046077
:201B00002A492B4BFB20C2F818050A681B68294822F00F0203F00F0313434FF400720B60E6
:201B20000260C0E7244A0123C2F80435D2F80034002BFBD04FF0102312211F4AC3F8001248
:201B4000D2F80034002BFBD04FF0102312211A4AC3F80412D2F80034002BFBD00023164941
:201B6000C2F80435D1F80034002BFBD0BFF34F8F0749124BCA6802F4E0621343CB60BFF3A5
:201B80004F8F00BFFDE700BF00C000403001001000ED00E0D80100200090D0033401001056
:201BA0008C56004000F0004048810300E40E0040580200104096024000E001400400FA052F
:201BC00010B568B90E4CA368012262703BB1D3E900230020A2609847A368002BF7D110BD2E
:201BE0000128FCD1064C2369A070002BF7D0D3E900230120226198472369002BF7D110BD61
:201C00008804002010B50B4C237882B013B1852002B010BD08486360A3602361E360FFF774
:201C2000A5FA0190FFF7AEFA01980123237002B010BD00BF88040020C11B000038B5154D71
:201C4000AB78044673B110B14368012098470020FFF77AFAEB680133EB600020BDE83840EE
:201C6000FFF77ABA03F0FF00FFF76EFA64B12A6942B1944208D0134601E09C4204D01B6832
:201C8000002BFAD122602C61EB68002BE2D1FFF78BFADFE7880400200649074A074B9B1A7A
:201CA00003DD043BC858D050FBDCFFF7A7FEFEF71BFB00009866000000000020C402002044
:201CC000FEE7FEE7FEE7FEE7FEE7FEE7FEE7FEE7FEE7FEE710B54F4CFEF77AFBFEF70EFC49
:201CE00000F0CEFA00F0ACFB4B48002100F086FB00F00EF9FEF710FD00F088F900F070FCAA
:201D0000FEF76EFB01F0E6F801F080FA00F0CEFA2368022B11DCFEF78FFB404800F0A2F83D
:201D2000FEF724FD00F0A6FB0446FEF727FD14F0FF0FF7D1FEF786FBF4E7394A39493A48E7
:201D400002F084FB394802F081FB2368022BE2DD334A3449344802F079FB354B3548196852
:201D600002F074FB2368022BD5DD2D4A2D492E4802F06CFB304B3148196802F067FB236888
:201D8000022BC8DD264A2749274802F05FFB2C4B2C48196802F05AFB2368022BBBDD204A69
:201DA0002049214802F052FB27484AF6CD3102F04DFB2368022BAEDD194A1A491A4802F0CE
:201DC00045FB22481A2102F041FB2368022BA2DD134A1449144802F039FB1D4B1D4819880F
:201DE00002F034FB2368022B95DD0D4A0D490E4802F02CFB184802F029FB2368022B8ADDE7
:201E0000164800F013FA2368022B84DD144802F01DFB80E7FC010020EC01002018650000DA
:201E2000D4610000DC6100003C610000E46100002C6400001C620000106400002C6200003E
:201E4000EC6300003862000044620000606200000410002080620000906200004C100020AD
:201E6000C864000010B50446006830B1002100F0C5FA54F8040F0028F8D110BDF0B50388C1
:201E800083B0054633B14A2B18D188291BD0012003B0F0BD1B4800F0B7FC044630B1A1682B
:201EA000201D00F06DF92468002CF8D1164B01221A704A2301202B8003B0F0BD00230380C1
:201EC000032003B0F0BD0F48019200F09DFC04460028EED0019A031D9A4205D02468231DA4
:201EE000002CE6D09A42F9D10648084E214600F0BBFCD4E90523376832600BB1E0699847AE
:201F00003760D6E79C040020101000202C06002010B5064B064800241C7000F071FC214643
:201F20000448BDE8104000F069BA00BF101000209C040020DC01002070B50E4C049E2578D3
:201F40004661C0E90623044635B9A1600A482146BDE8704000F05ABC084D094B2E682B60F1
:201F6000043000F00DF92E6021460348BDE8704000F04CBC101000209C0400202C06002058
:201F8000DC01002010B5044C82B024680094FFF7D3FF02B010BD00BF2C06002010B50A4B6B
:201FA0001B7804463BB9C0E9033321460748BDE8104000F059BC043000F00EF921460348E4
:201FC000BDE8104000F050BC101000209C04002038B50C4B1D7804466DB90B4800F014FC74
:201FE00038B1A04202D10BE0844209D000680028FAD1012038BDBDE83840043000F0DEB871
:20200000002038BD101000209C040020704700BF10B5FEF7ABFA0B4B1A68D2E90031926818
:202020000B44191A52B1D2E9003423441B1A9268994228BF1946002AF5D14318024A13606B
:2020400010BD00BFA4040020A00400202DE9F843038805465BB3592B2CD187292FD0822958
:2020600020D12C4FDFF8B4803C684FF00009CCB1002603E0A3682646A3B11C46204600F0F4
:20208000A1FA0028F6D0E0682246882100F04EFA03464046002B2AD000F06AFAA368264667
:2020A000002BEAD159232B800120BDE8F883194A1360F7E7002303800320BDE8F883154FD1
:2020C0003968002019B9EDE789680120D9B1CB689342F9D000B139608B68002BE2D0D868D2
:2020E000904207BF9B688B6019469B68F5E7E360A3686EB1B3603B68C4F808902BB1FFF7D3
:2021000087FF3C68B3E73960CCE7034A1360C9E73B60F1E7A4040020A0040020EC01002033
:2021200010B50446104800F023FA1049E3680A684BB142B194420FD0134601E09C420BD07E
:202140009B68002BFAD10A4BA2601B68E3600C60BDE81040FFF75CBF054B1B68E360BDE83C
:202160001040FFF755BF00BFEC010020A40400202C060020014800F0FBB900BFEC01002066
:2021800010B5044600F002FA2046BDE81040FFF7C7BF00BF10B5044600F000FA2046BDE8AA
:2021A0001040FFF7BDBF00BF10B5044600F004FA2046BDE81040FFF7B3BF00BFC068B0FA4D
:2021C00080F04009704700BF024B1868003818BF01207047A404002010B5124B19688142EE
:2021E000044614D00B462BB19A68A24206D01346002BF9D10023C4E9023310BDA2689A60A4
:2022000049B1FFF705FF0023C4E9023310BD82681A60002AF5D1044B00221A600023C4E9E9
:20222000023310BDA4040020A0040020F8B1F8B50024104E104F054654B1E3070DD5295D37
:20224000304602F003F9072C10D00134002CF4D12978304602F0FAF8F7E7384602F0F6F8AA
:20226000295D304602F0F2F8072CEED1F8BD034802F0ECB8D8620000D4620000C462000068
:20228000FEF790B910B5084C206858B1D0E90131002222609847236823B1BDE81040186814
:2022A000FEF7B2B910BD00BFA8040020034A04499079D37903EB00230B8070474C100020A8
:2022C000041000202DE9F843DFF8A880D8F80040844205460F4645D0002C36D0234601E073
:2022E000002B32D01B689D42FAD173B3204EAB7BD6F80090F3B10023AB73002C34D0A54270
:2023000009D0A37B13F0010F20462A464FF0870101D000F031F82468002CF0D1AB683BB1B4
:20232000BD4205D035600022832105F10C009847D8F80040A5420AD02CB12368AB420CD08B
:202340001C46002CF9D1C6F80090BDE8F8832B68C8F80030C6F80090F7E72B682360C6F834
:202360000090F2E72346C0E7AB68002BD8D1EAE72C060020300600208368BBB170B50446BE
:202380000B4E0220A073346004F10C000D4698470238012804D9832D02D00123A37370BDBF
:2023A00021462046BDE87040FFF78CBF704700BF2C06002038B50B4A0B4B146800221A7032
:2023C0007CB1012501E024685CB1E37B002BFAD0E581204600228221FFF7CEFF2468002CD1
:2023E000F3D138BD3006002014100020024B1878421C1A70704700BF1210002070B50E4D8D
:202400002C68844207D00A4634B1234600E01BB11B689842FBD170BD0028FCD0074E04603E
:202420000121002334688173838181212860FFF7A3FF346070BD00BF300600202C060020D9
:2024400030B4074B07480849084A094C8A251D70002303700B601360237030BC704700BF5A
:202460001210002013100020300600202C060020111000202DE9F041224D2B78FBB9224E71
:202480003378C3B12148224C027802EB420704EB8701013202F01F02013B0270886814F82F
:2024A0002770D1F80480DBB2337058B1812F1ED0827BD2071DD428781844BDE8F081FFF792
:2024C00079FFDCE7134A14685CB9F4E7A37B13F0010F20464246394601D0FFF74DFF2468BB
:2024E0005CB12B78002BF1D0FFF764FFEEE70123837342463946FFF73FFF33782878184416
:20250000BDE8F081141000201310002011100020AC04002030060020024A034B10781B7802
:2025200018447047131000201410002070B40D4D2C78202C12D00C4B0C4E1B78234403F013
:202540001F0303EB430301342C7006EB8304C4E9012006F82310002070BC7047012070BC8D
:20256000704700BF1310002011100020AC04002018B1837B013B012B00D97047024A012362
:202580001370C373704700BF1410002010B541600446FDF7EBFF206010BD00BF10B504461F
:2025A000FDF7E4FFD4E90021C2F101031844884284BF5218226010BD10B50446FDF7D6FFB5
:2025C000206010BD10B50446FDF7D0FFD4E90032C3F10103184482422CBF0020012010BD1C
:2025E000074B82B001AA9A42019304D9CD2103F8011B9342FBD10348002102B0FFF7FEBEE9
:20260000701000200002002038B5124C124DFEF7B5F82378CD2B08D0AC4202D30EE0AC42A2
:2026200012D014F8013FCD2BF9D1AC4202D30BE0AC4209D014F8013FCD2BF9D0FEF79EF89D
:20264000AC4203D2281B38BDFEF798F84FF0FF3038BD00BF701000200000042070B5038864
:2026600004463BB1912B0ED11F48FFF7A7FD70B9012070BD1C484FF4A061FFF781FD912341
:202680002380012070BD00230380032070BDFFF7BBFF164E164B051EA6EB030615DB002E03
:2026A00013DBB5420DDD134B1B68002B09DD124A1249134801F0CAFE12483246294601F05C
:2026C000C5FE0948FFF766FDD9E70A4B1B68002BF7DD094A09490A4801F0B8FE3246294671
:2026E000094801F0B3FEECE7340600200000042070100020FC010020E062000038610000FE
:202700003C61000014630000E86200002DE9F0410488772C064607D07E2C37D0A4B1002399
:2027200003800320BDE8F081DFF8D0802E4D98F800202E4F00233B602B6012B32C4CE25650
:20274000002A41DB2B6832E02A4F274DFFF74EFE294B3A6818702C60002A43D02346244C1F
:20276000984604F8038000219368802098472B6801332B6057F82320002AF2D1DBB21F4A9A
:202780001370772333800120BDE8F0811A4B1B788B4216D1144D164CDFF86080134F2B6817
:2027A0003A68E15C01F07F010132E1543A6098F80020013393422B60C1DB3B68002BB9D18F
:2027C000DFE70120BDE8F0810A4A0B4952F8232009780020FFF7AAFE0028E0D17E2333805B
:2027E00001209FE71346CAE748060020440600201C100020B8010020601000201510002056
:2028000000230360704700BF006870470368DBB110B4002400E0134699420FD01A681C46E7
:20282000002AF8D100230B600368CBB11A461B68002BFBD111605DF8044B70470A686CB1FB
:20284000226000221A60EDE700230B6003684BB11A461B68002BFBD1116070470260F0E756
:202860000160E8E70160704703689BB110B4002400E0134699421A6805D01C46002AF8D1B1
:202880005DF8044B704734B1226000221A605DF8044B704770470260F7E700BF03682BB182
:2028A00000201B680130002BFBD170471846704700B10068704700BF10B504464288406871
:2028C000002103F055FA23886288A06802FB03F2BDE81040002103F04BBA00BF30B4458888
:2028E000ADB14368002202E00132AA420CD0194601330C78002CF7D101230B7005888068B1
:2029000002FB050030BC7047002030BC70472846F8E700BF30B44488826854B18A420CD0FC
:202920000588002301E0914208D00133A3422A44F9D14FF0FF3030BC704700234268D15CFF
:202940000029F6D00020D05430BC704783688B4208D84288008800FB023081422CBF0020BC
:20296000012070470020704708B502F029FB80B208BD00BF0F4B0121002219601946C3F8EE
:202980000021D1F80031002BFBD0D1F80805094A0023C0B2C1F80031D2F80031002BFBD08D
:2029A000D2F80815012340EA012080B2536002F0D9BA00BF00D000400023013A0271016056
:2029C00043718371704700BF10B4817942790479521A224208D003464A1C00682240405C26
:2029E0009A715DF8044B70474FF0FF30F9E700BF10B590F84C10094A013180F84C10044618
:202A0000034680212030FFF7BDFA054B22461978BDE810400020FFF789BD00BFF12900005C
:202A2000621000202DE9F041038804463BB1B3F5867F0AD182290DD00120BDE8F0814FF472
:202A4000867323800120BDE8F081002303800320BDE8F081FDF79EFEBFF35F8F1649174BD3
:202A60000E6800220A601F781A70FFB2BFF35F8F134DFDF793FE28680028E0D0DFF84480FA
:202A800003E055F8040F0028D9D090F8463026FA03F3DA07F5D590F8453047FA03F3DB074D
:202AA000EFD5FFF795FA0028EBD02B68424618460221FFF767FAE4E75C0600201610002064
:202AC000A4010020252B000010B4094A094C13681943116021780346012202FA03F30B43E8
:202AE000DBB2237004485DF8044BFFF741BD00BF5C060020161000202002002010B50446FA
:202B000090F8461090F84500FDF7A0FE10B994F8440010BD01280ABF94F84400002080F0C0
:202B2000010010BD70B50446FFF752FA00B970BD04F120063046FFF74BFA05462046FFF7BD
:202B4000DDFF01280ED00028F1D1002DEFD13046FFF724FA0D4B224628461978BDE870401D
:202B6000FFF7E4BC002DE2D0002530462346084A84F84C507E21FFF705FA064B28462246B7
:202B80001978BDE87040FFF7D1BC00BF61100020F129000063100020F8B5FFF727FC304B8E
:202BA000304C1870FFF722FC2F4B304F1870FFF71DFC2F4922682F4B08700025FF21397289
:202BC0007B60FD60002A42D02B4E09E091F84600F9683A72834054F8042F0B43FB60B2B3F3
:202BE00092F8463092F84510926C03F01F0343EA41131F2BC6BF03F01F0331464FF0A041E7
:202C000003F5E07342F08C0241F82350236893F8461093F84500FDF7D7FD226892F846306F
:202C200092F8450003F01F0343EA40100121FEF7AFFC2168387A91F8452082424FF0010341
:202C4000C4D0FF28C2D054F8042F002AC8D10B480021FFF7D3FBBDE8F840044800F00CB9CF
:202C600063100020A4010020611000204C06002062100020C92A00000003005020020020DF
:202C800070B50488672C06461BD0792C33D05CB300230380032070BD1E4C1F4923681F4A46
:202CA0000978581C002520602846D554FFF73EFC1B4B2A4618688521FFF738FC30B3002387
:202CC0002360184C134D06E00A28E5D00D28E3D02B687E2B15DD2046FFF776FE431CF3D1D7
:202CE00067233380012070BDFFF780FB0A4A094B10701C60E5E7852901D0012070BD054C4A
:202D0000DDE706495A1CC8542A60E4E779233380012070BDE00600206410002060060020FC
:202D20002C060020E406002008B5054905488022FFF742FEBDE8084003480021FFF75EBB9F
:202D4000EC060020E40600203002002070B41A4A1A4D0023012440FA03F1C90712D59178E0
:202D6000B9B11178567801F01F0141EA46111F29C6BF01F01F012E464FF0A04604FA01F198
:202D8000C6F80C150133042B02F10302E3D170BC70471178567801F01F0141EA46111F2930
:202DA000C6BF01F01F012E464FF0A04604FA01F1C6F80815E6E700BFB46000000003005026
:202DC00070B41A4A1A4D0023012440FA03F1C90712D59178B9B11178567801F01F0141EAD1
:202DE00046111F29C6BF01F01F012E464FF0A04604FA01F1C6F808150133042B02F10302DF
:202E0000E3D170BC70471178567801F01F0141EA46111F29C6BF01F01F012E464FF0A046BA
:202E200004FA01F1C6F80C15E6E700BFB4600000000300500E4A30B40E4D02F10C04032013
:202E40001378517803F01F0343EA41131F2BC6BF03F01F0329464FF0A04103F5E073033295
:202E6000944241F82300EBD130BC0F20FFF7A8BFB46000000003005001460148FFF7C6BC7D
:202E80006C07002070B505460C480E46FFF7BCFC90B1044601E0246874B1237AAB42FAD167
:202EA000E36816EA0301F6D063682846002BF2D098472468002CF0D170BD00BF6C07002000
:202EC00008B50348FFF79CFCBDE80840FDF772BC6C07002008B50448FFF7EEFCBDE80840E4
:202EE0000248FFF7E9BC00BF4C0200204002002038B50E48FFF7F2FC044678B10C48FFF77A
:202F0000EDFC0546206058B100F048F805F19C01A5F8800005F1820000F02AF9204638BD2E
:202F2000214602482C46FFF7F5FCF7E7400200204C020020006800F19C01823000F018B970
:202F400010B5014604460748FFF700FD00B910BD21680548FFF7DEFC21460248BDE8104007
:202F6000FFF7D8BC400200204C02002010B5014604460948FFF7EAFC00B910BD2468B4F8B6
:202F80008010204600F0D2F804F19C0104F18200BDE8104000F0FEB840020020F8B50E4E72
:202FA0000E4D32782B881344802B01DD0020F8BD0B4F3946044602F0F1FE0A4B30781B7810
:202FC0002A88034457FA83F1204402F0E7FE30782B881844F8BD00BF171000200610002050
:202FE000000D00200810002070B4134B134D144A2C781B781288234452FA83F39BB21A18B3
:20300000802A15DC013B1BB2002B0CDB0D4A591C1E1811443244013B11F8016D02F8016916
:203020001BB25E1CF7D120442870012070BC7047002070BC704700BF081000201710002040
:2030400006100020000D0020084A138883420BDB10B407490C8880B21B1A204408801380E7
:2030600001205DF8044B7047002070470610002008100020014B1880704700BF06100020FF
:20308000044A054B12781B780448134450FA83F0704700BF0810002017100020000D0020F3
:2030A00000487047000D0020014B1888704700BF061000200549064A064B127808781B88B0
:2030C000104453FA80F080B2704700BF17100020081000200610002038B5094D094C0A4898
:2030E0001A22002102F044FE2946204600F0A0F8294604F10800BDE8384000F099B800BF59
:2031000068630000201000203010002004480549054A002303800B801370FFF7DDBF00BF46
:2031200008100020061000201710002070B5802982B00B4A0B4D0C4E01900C464FF00003AE
:2031400028BF8024137033802B80FFF7C5FF01990648224602F022FE20462C8002B070BDF6
:20316000171000200610002008100020000D002010B51A220C46054902F010FE2046044919
:20318000BDE81040102202F009BE00BF301000202010002010B51A220C460146044802F008
:2031A000FDFD21460348BDE81040102202F0F6BD3010002020100020024B23F8101001203E
:2031C000704700BF30100020014B33F8100070473010002008B5044B0D3803EBC00000F08C
:2031E00027F8012008BD00BF20100020024B0D3803EBC000704700BF201000200149024821
:2032000000F01AB86863000028100020054B10B51B689847044B5B689847044BBDE810401D
:203220005B6818479C610000EC63000010640000082202F0B3BD00BF08B5082202F0A0FDEB
:20324000B0FA80F0400908BDF8B5FDF78FF9104E0746344600250D20FFF7C8FF2146FFF78C
:20326000EBFF103420B90135102DF4D10020F8BD072006EB0515FFF7A7FF2B7B8342F5D13B
:20328000A868381AB0F5206F8CBF00200120F8BD800D0020F8B5174E0024374635460D204F
:2032A000FFF7A4FF2946FFF7C7FF1035F8B90134102CF4D10F2407EB0410A0F110042146D9
:2032C000102202F06BFDA6422046F6D10720FFF77BFF3873FDF74AF90346BB600D20FFF74D
:2032E00085FFBDE8F84001460248FFF7A1BF002CE1D1EBE7800D002040B120B40D461146BA
:203300001A46034628465DF8045B1847704700BF30B591B0FFF7B4FE0446FFF7C5FE6A468C
:203320000146204600F09EFA00283ED00446FFF78BFED0B39DF810100C20FFF73DFF9DF82E
:2033400013100820FFF738FF9DF817308BB1BDF81C5000F0E9F8854205D0BDF81C204FF619
:20336000FF739A4221D19DF81700694600F096F9B0B102A90D20FFF72DFF9DF815303BB112
:203380004FF6FF710720FFF717FF204611B030BD9DF81A100720FFF70FFF204611B030BD33
:2033A00069460E20FFF716FFE3E74FF0FF34ECE7F8B505460C2014460E46A847002320749E
:2033C000A37496B3E37463750920A847002701232376A07567740720A847A07600F0A4F8BA
:2033E000E0830A20A84701280CBF3B460323637600F09AF8A0830B20A84701281AD066B9EC
:203400000323E375637E022B0CD0E37DA3F10203B3FA83F35B092375F8BD0223E375637E19
:20342000022BF2D101232375F8BD0820A8476675E074C9E7E775E5E730B591B0044600F0AD
:2034400073F84FF6FF7398425CD040226846002102F08EFC2D4B1A782AB364BBFFF7CEFECF
:203460006A46C1B22A48FFF7A3FFFFF7C7FE00283DD04FF6FF73ADF800300D20FFF7B6FECC
:20348000014602A8FFF7D4FEFFF7FAFD0E90FFF70BFE034668460F9300F012F90546D4B97D
:2034A000284611B030BD01221A70FFF75DFA194B1870002CD2D00720FFF786FE0028CDD1D5
:2034C000144D2978D9B189B20720FFF775FE2B7801332B70C2E7FFF787FD98B1FFF7E0FDE4
:2034E0000146684600F038F9284611B030BD0E20FFF77CFE01466846FFF79AFEBDE70121B3
:203500002970E1E74FF0FF35CAE700BF18100020C9310000191000200120FFF78DBF00BFBA
:203520000020FFF789BF00BF014B1888704700BFB802002000283ED0037A022B30B410D08E
:203540000378022B15D00379B3B10024C37913F0030318BF012301B10C6002B1136030BC6A
:203560007047C579447A037965B90CB9012BF2D0DBB100231C46EEE7447A14F0030418BFC5
:203580000124E3E7C4B1032D37D1032C2ED0022C24D143BB022D2DD00123032D24D1A4F137
:2035A0000204B4FA84F46409D5E7023C012C8CBF00240124CFE770474BB9022D08BF01232C
:2035C000EAD1A4F10304B4FA84F46409C3E7032D01D0022D02D123461C46BCE7002BC8D122
:2035E000022DDAD1EDE701230024B4E7002BC0D10123D4E701231C46ADE7022DC7D1002B93
:20360000F1D1022C4FF00103DBD11C46A3E700BF30B504460D46084683B00021062202F0E2
:20362000A7FB637DD9075CBF01232B70237E012B23D901AA694604F11000FFF77BFF009B1B
:203640000BB10223EB70019B0BB102236B70E37D03F00303022B03D0032B14BF002308232E
:20366000AB70637E03F00303022B03D0032B14BF002308232B7103B030BDE37D9A0706D0F3
:20368000637E9B0703D0E28BA38B9A4202D000232375CEE701232375CBE700BF02280CBFF9
:2036A000012307230B441A78FF2A184603F1FF3303D18142F7D1012070470020704700BF61
:2036C00030B583B06946FFF7A3FF9DF800309DF801509DF802409DF803109DF804209DF813
:2036E000050002332B4423440B441344184403B030BD00BF70B4437882780578C478DB00EC
:20370000120102F0100203F008031343027905F0070564012B4304F020049201234302F0EC
:20372000400213430B7043798579467AC479027A03F001036D0043EA861305F00205A0007D
:203740002B4300F00C001201034302F03002134370BC4B70704700BFF0B583B00E46074656
:203760006946FFF755FF314607F11000FFF7C2FF9DF80030012B04BFBB7EB3709DF8013044
:203780000CBF03220222022B08D1BB8BB354531CB98BDBB2090A0232F154D2B29DF80230AB
:2037A0004BB35D1E13443D44DBB214460132D2B215F8011931559A42F7D19DF80320022AE5
:2037C00008D1FA8BF2545A1CF98BD2B2090A0233B154DBB29DF8040078B1C41D18443C446E
:2037E000C0B21A460133DBB214F80159B5549842F7D103B0F0BD1346DFE7184603B0F0BDE8
:2038000070B50278437884B002F007040846C2F30011C2F3C0058DF804408DF80610C2F376
:203820004014C3F34001C2F380128DF8055003F001068DF80740C3F381058DF80820C3F3B7
:2038400001148DF80A109B090A2201A98DF809608DF80B508DF80C408DF80D3002F09EFA4F
:2038600004B070BD012943DD2DE9F04186B014460F4603A90546FFF7C3FF03A90A2204F175
:20388000100002F08BFA9DF811306BB3AE1C03A802AA01A9FFF74EFE9DF81380B8F1000FC0
:2038A00043D0029B002B31D1B8F1020FA38367D0B8F1030F4DD09DF81580B8F1000F2CD05E
:2038C000019BBBB9A38BE383B8F1020F4DD0B8F1030F31D0701B3B1A8742C4E90E6300DA10
:2038E000002006B0BDE8F081AB78A376EE1CCEE700207047717816F8023B029A03EB012328
:203900009BB2E383002ADFD1A383DDE7727816F8023B03EB02239BB2C6E71E4904F108008A
:20392000FFF786FCA4F81E80D4E71A492046FFF77FFCA4F81C80BEE706F10800034604F1C6
:20394000080213F8011D02F8011BB342F9D10646C0E706F108000346621E13F8011D02F881
:20396000011FB342F9D10646A5E70A4904F10800FFF75EFC7378237216F8023B6372A9E7C0
:2039800004492046FFF754FC7378237016F8023B637090E768630000074A084913681844D7
:2039A000884202D8106018467047054B0C221A604FF0FF33184670475802002000000420C2
:2039C0005C100020102A2DE9F041144606460D460DD90C4F01E0102C0CD933682868102241
:2039E0003946103C98470028F5D0BDE8F0811046002AFAD03368286802492246BDE8F0411C
:203A0000184700BFC46300000B78002B00F0DF842DE9F04F91B0904600228A4681460092A9
:203A200004E01AF8013F002B00F0D680252BF8D1514500F00381AAEB0104D9E900302246C8
:203A40009847002840F05881009A9AF8003022440092002B00F0C3809AF801300AF10104E1
:203A6000002B00F0BC800021A3F12002102A0AD8DFE802F0AF0909AC09090909090909A9EE
:203A800009A60909A100A3F13102082A40F2BD802A2B00F0C88000262E2B00F0AB804FF0F6
:203AA000FF3B6C2B00F09F80682B00F0CA807A2B03D1637841F060010134782B00F2EA803F
:203AC000DFE813F08D00E800E800E800E800E800E800E800E800E800E800E800E800E800C7
:203AE000E800E800E800E800E800E800E800E800E800E800E800E800E800E800E800E80046
:203B0000E800E800E800E800E800E800E800C401E800E800E800E800E800E800E800E80048
:203B2000E800E800E800E800E800E800E800E800E800E800E800E800E800E800E800E80005
:203B4000E800E800E800BD01E800E800E800B601AF01A801E800E800E800E800E800E800B7
:203B6000E800E800E800E800E800E800E800E800E800E800A101E800E800E800E800E8000B
:203B8000E800E800E8009A01E80093011F015B0169016201E8001F01E800E800E800E80065
:203BA00085017E017701E800E8007001E8005401E800E8004D0141F0100114F8013F53E724
:203BC00041F00101F9E741F00601F6E741F00801F3E741F00201F0E78A457FF42CAF0098E9
:203BE00011B0BDE8F08F63786C2B31D0013441F0600162E76378A3F13000092804F1010295
:203C00002BD92A2B3AD0144649E7002606EB860603EB460614F8013FA3F13002092AA6F1FE
:203C20003006F3D938E7D8F800606378002E08F10408B8BF41F0010101342DE79AF8003070
:203C400007E76378682B20D0013441F0400134E7A37841F0800102342FE74FF0000B0BEBFD
:203C60008B0B03EB4B0B12F8013F2F2BABF1300B40F29282392BF2D9144612E7A378D8F83C
:203C800000B0023408F104080BE7A37841F02001023412E701F4E0630F46B3F5A06F04F172
:203CA000010A39D000F29181B3F5407F00F09C81B3F5806F40F0D180D8F80050019508F1B1
:203CC0000408002D40F02082C44B01930625BBF1000F02DB5D4528BF5D46AE428CBF761B7B
:203CE0000026F80740F12382D9E9003001992A469847002800F0B9814FF0FF3011B0BDE8C8
:203D0000F08F01F4E06343F48073B3F5A06F41F4245704F1010AC5D1012ED8F800308DF811
:203D20002830354638BF0125FA0705F1FF3508F1040840F11C82D9E9003001220AA99847ED
:203D40000028D9D12A4609F104014846FFF73AFE009B01330028CFD1EB1800933FE001F425
:203D6000E06343F4807341F4C85796E701F4E06343F4807341F410678FE701F4E06343F412
:203D8000007341F4024788E701F4E06343F4007341F4813781E701F4E06343F4007341F475
:203DA00000777AE701F4E06343F4806341F4806773E701F4E06343F4407341F440776CE702
:203DC00001F4E06343F4807341F4885765E704F1010AD8F80030009A1A6008F1040863782D
:203DE000002B3FF4FCAE514620E601F4E06343F4A06341F4A06750E701F4E06343F4007357
:203E000041F4C13749E701F4E06343F4807341F4B24742E701F4E06343F4007341F4A1379D
:203E20003BE701F4E06343F4007341F4844734E701F4E06343F4007341F442472DE701F4BA
:203E4000E06343F4007341F4E13726E701F4E06343F4C06341F4C0671FE7B3F5807FBED1F1
:203E6000BBF1000FABBF27F010070123CDF804B0019317F40053069307F0E00300F01D815F
:203E8000402B00F07C8200F20B81002B00F05A82202B40F09E8298F9002008F10408D31719
:203EA000002A73F10001C0F21D82CDE9022307F4C053B3F5805F00F08C81B3F5C05F00F0FE
:203EC000E781B3F5006F00F0AD81002305939B460DF13E030493019B9B4534BFA3EB0B03C8
:203EE000002341F60802019307EA020141F208039942019B00F0138191425B4404D1DDE990
:203F000002120A4340F0588100250795069A7AB1059A002A40F04C8107F00602022A00F0CA
:203F200054812F49062A079A04BF0A46012507922B449E428CBFF31A0023029317F0010327
:203F4000059307D1FE0640F1F381DDE901210A44CDE901233DB1D9E9003007992A46984769
:203F600000287FF4C9AE009B019F5B44102F009340F2B2811B4ED9E9003010223146103FCB
:203F8000984700287FF4B8AE102FF4D8D9F800301449D9F804003A46984700287FF4ACAEAF
:203FA000D9E9003004995A469847009B1D4400287FF4A2AE019B2B449B46059B002B40F025
:203FC000ED80029B5B44009309E7B3F5C06F5BD0B3F5E06F3FF4FDAE01E700BFB86300001C
:203FE000B0630000D4630000D8F80010C948CA4D17F4804F08F104080A464FF0000314BF2B
:204000008346AB4600296AD00DF13B0E7146100902F00F0C40EA03701D0902462B461BF8D0
:204020000C0001F8010D52EA0300F0D1BEEB010557D003357823AE4201F8013C4FF030022D
:204040004FF0230301F8022C01F8033CA1F1030B8CBF761B0026F9077ED5D9E90030594616
:204060002A46984700287FF447AE324609F104014846FFF7A7FC009B2B441D4600287FF4BB
:204080003BAE73190093AAE6D9E90030A3490122984700287FF430AE009B013300939EE649
:2040A000602B00F04F81802B40F0938108F1070828F00708F8E80223F2E6402B00F0578187
:2040C00015D8002B00F04481202B40F0998198F800200023CDE9022308F10408E7E60DF100
:2040E0003B01302301F8013C04250139A2E7602B00F02E81802B40F0838108F1070828F0E6
:204100000708F8E80223D0E62B78002B00F0488115F8013F002BFBD1019BED1AD7E5012B7F
:2041200038BF01230025019307955B44EEE6324609F104014846FFF745FC00287FF4DCAD3C
:204140000199D9E900302A46984700287FF4D4AD009B2B441D4694E7324609F1040148467B
:20416000FFF730FC00287FF4C7AD5946E9E72A4609F104014846FFF725FC00287FF4BCAD87
:20418000D9E9003001220AA99847009B013300287FF4B2AD2B44DFE514468EE4029A09F11A
:2041A00004014846FFF70EFC00283FF40AAFA3E55B4A07920125BBE65A495B4A17F4804FA9
:2041C00018BF0A4607920225A0E6584A07920125AEE6DDE9022313433FF477AEDDE90223F9
:2041E0001846002315460593DDE902230DF13E0107918C464FEAD20B4BEA437B02F00701B6
:204200004FEAD30E30315A4673460CF8011D52EA0301EFD1079BCDF810C0CDE90250A3EBDB
:204220000C0B58E6DDE90223134300F0C88000230593DDE902120DF13E03CDE90864079320
:204240008B46154604971C46584629460A22002300F00CFD303204F8012D584629460A221B
:20426000002300F003FD2F465E46002F08BF0A2E83460D46E8D2079B049F089E0494224623
:20428000A3EB020B099C26E600220023CDE9022317F4804365D10593DDE902231E4DDDE9FA
:2042A0000201014300F085800DF13E000790110902F00F0E41EA03714FEA131C0A466346C6
:2042C00015F80E1000F8011D52EA0301EFD1079B0490A3EB000BFEE5019B002B3FF460AEE3
:2042E0001F4653E6524207F4C05163EB4303B1F5805FCDE9022355D0B1F5C05F45D0012369
:20430000B1F5006F059394D00DF13E0304934FF0000BE0E5906300007C630000C0630000B2
:20432000AC630000A4630000A8630000B4630000029A09F104014846FFF744FB00283FF48C
:2043400009AED9E4D8F8002008F10408D317A7E5D8F8003000221946CDE9021208F104082E
:20436000A5E50021DDE90223324D059197E7B8F800200023CDE9022308F1040897E5B8F914
:20438000002008F10408D3178AE57B0405D50121DDE90223274D059186E7012305937BE7A4
:2043A000019DB9E6DDE9022318460123154605931AE70DF13E034FF0000B04938BE54FF090
:2043C000000B0DF13E03CDF814B0049383E51846704707F4C053B3F5805F06D0B3F5C05FC4
:2043E0003FF452AFB3F5006F13D0002305939B4600230022CDE902230DF13E0304936AE5AE
:2044000007F4C053B3F5805F08D0069B05939B46EEE74FF0000BCDF814B0E9E70699059168
:2044200000230022CDE902230DF13E038B46049351E500BF906300000AB90020704708B576
:2044400008461146FCF746F8002008BD0FB400B583B004AA054852F8041B0192FFF7D4FA3B
:2044600003B05DF804EB04B0704700BF5C02002010B501210C20FEF79FFE024BBDE81040B6
:204480005B68184770630000014B9B68184700BF70630000014B1B6A184700BF9C610000FB
:2044A000014B5B6A184700BF9C61000010B50D4B82B01B6898470C4B04469B6A01A9182097
:2044C000984701280BD0002C0198B8BF15248028D4BFC4EB0000C4F1800002B010BD0020C6
:2044E00002B010BD706300009C61000000F0A2B900B583B0FEF7D8FD032802D103B05DF86A
:2045000004FBFFF7C1FF0028F8DB0E20FEF76EFE1F49FEF791FEE8B10D20FEF767FE1C49EB
:20452000FEF78AFE0028E9D1FEF78EFEB8B10820FEF74AFE0028E1D00223ADF80430FEF701
:20454000AFFD144B8278DB688DF80620032101A89847D3E7FEF752FE0028CFD0DCE7FEF73E
:2045600099FE0820FEF730FE18B90B4B9B689847C4E70223ADF80430FEF792FD054B8278D9
:20458000DB688DF80620032101A89847EDE700BF4C1000209C6100001064000010B5064CEA
:2045A00082B0A36A01A91820984718B900F0ECF9236A984702B010BD9C61000070B590F8C0
:2045C0002D50012D04460FD91F25FEF7CDF90246B0FBF5F1234601FB152104F10C00054A3B
:2045E000BDE87040FDF7CEBCE91C01258D40013DEBE700BF854600002DE9F04714460D465C
:204600008A6894F82C900646606BD2E90078FEF72BF96868FEF794FCA9681648FEF77AF9D1
:2046200015482946FEF776F9606BFEF7EDF860B10023A3852046FFF7C1FF4B46324641469D
:204640003846BDE8F047FEF757BE04F10C00FDF7A5FC21460948FEF707F921460848FEF707
:2046600059F94B46324641463846BDE8F047FEF743BE00BF640200207C020020E80E00200F
:204680007002002008B32DE9F047044682B0406BFEF7BAF80546A8B14068FEF767FC634962
:2046A0000D20FEF797FD01210820FEF785FDFFF7DFFE00280ADAAB6823B1052022462946C1
:2046C000FFF79AFF02B0BDE8F0877047FEF7E8FCDFF85C8190F80290D8F80470FEF7E0FC0A
:2046E0000646FEF7E7FC01463046B847FEF786FDD8F818600746B04770BB002F4AD1D8F891
:204700001CA0D04740BBD8F80870FEF7D3FCB84700285DD002281FD0AB68002BD2D004204E
:20472000CCE7FBF777FF6FF028031E1A03E0FBF771FFC64202D5D0470028F8D0D047002832
:204740005ED0D8F81030032101A89847032803D19DF806304B4524D0AA68002AB2D094F8D7
:204760002D300133DBB2052B84F82D3094F82C3008D8127A9A4224D8224629460120FFF7F8
:204780003BFF9FE70133DBB2002184F82C3084F82D10EEE7D8F80860FEF78CFCB04700283D
:2047A000B8D1AB68002B8DD094F82C3000200133294684F82C3084F82D002246FFF71CFF30
:2047C00080E72046FFF7FAFE6868FEF7B3FB79E7FBF720FF6FF018073F1A03E0FBF71AFF75
:2047E000C74202D5D0470028F8D0B047002898D1D047002895D1D8F814309847002890D02A
:20480000A96800293FF45EAF94F82C300133DBB2002284F82C3084F82D200A7A9A42D0D8AA
:20482000224629460220FFF7E7FE4BE74C1000209C6100002DE9F04106460E200F46FEF7EE
:20484000D5FC4B4B1A780546002A6FD0494C2178002940D04A1CD2B289B207202270FEF771
:20486000ABFC01210C20FEF7A7FC4348FDF7CCFF044620B918E0FEF71BF80446A0B1294634
:20488000201DFEF7D9FC03462046002BF3D0606BFEF704F8072821DD394630460123BDE8CD
:2048A000F0410422FEF728BD3448FEF717F804460028F1D02946201DFEF7BAFC002304F1A5
:2048C0003000C4E90C30A385FDF79AFF2A482146FDF79CFFDBE701210222BEE72848FDF791
:2048E000FDFF054688B32748FDF7F8FFA86040B3FEF7FEFA686000B30620D5F80880FEF709
:2049000063FCC8E9006710F0FF000ABF082388F8080088F80830606B2946FDF777FF606B7E
:20492000FDF772FF85421ED0BDE8F08101221A70FEF71AF80F4CC1B28AE7A9681148FDF7F6
:20494000E9FF0F482946FDF7E5FF606BFDF7A6FF0028A1D121460848FDF786FF21460748ED
:20496000FDF7D8FF98E72046BDE8F041FFF726BE1A1000201B100020E80E0020700200209A
:204980007C0200206402002008B50548FDF794FF0448FDF791FFBDE808400348FDF78CBF1B
:2049A0007C0200206402002070020020014B00221A607047C80F002010B50446FEF7A6FB06
:2049C0000D4A0E4B11881868FEF7B0FB74B121460E20FEF7FFFB0A490D20FEF7FBFB094B06
:2049E000002108469B689847012010BD06490E20FEF7F0FBEFE700BF58100020541000207A
:204A00004C100020EC6300006863000030B50E4B1C6883B0B4B1FEF733FB0546FEF744FB04
:204A200001460D200191FEF7E1FB00900E20FEF7DDFBDDE900210346A446284603B0BDE834
:204A40003040604703B030BDC80F0020014B1860704700BFC80F0020704700BF704700BF8B
:204A600000207047002070470020704701207047704700BF0120704701207047704700BF3D
:204A800000207047704700BF00207047704700BF704700BF0020704701207047012070477F
:204AA00000207047704700BF10B5038804461BB100232380032010BD0F20FEF781F90348A4
:204AC000FFF7C4FF00232380032010BDD14A000070B586B00146142201A801F05FF92C490D
:204AE00001A801F069F910BB2A4A2B492B482C4E2C4CFFF7ABFC2C4A336812682B4801A95D
:204B00000125FFF7A3FC3560FBF730FD034628462360FEF71BF9264A236812689B1AB3F511
:204B2000C07F2DD92348FDF723FD06B070BD224901A801F041F90028F7D1164A1649174881
:204B4000194D1B4CFFF782FC154B2A681B681B4801A9FFF77BFC01232B60FBF707FD034637
:204B600002202360FEF7F2F80E4A236812689B1AB3F5C07F08D91248FDF7FAFC06B070BDB0
:204B80000420FEF7E3F8CDE70420FEF7DFF8F2E7806400008C640000DC6100003C610000F6
:204BA000F40F0020F80F0020CC0F002090640000D00F0020A8020020A8640000B4640000CF
:204BC0009802002010B50388044673B1632B15D1822917D10F48FDF7E7FA0E48FDF7EEFAF8
:204BE00040B10620FEF7ECF804E00A484FF4A061FDF7C6FA63232380012010BD00230380DA
:204C0000032010BD0348FDF7D9FA0028E5D1012010BD00BFD40F002010B50388044673B146
:204C2000502B15D1822917D10F48FDF7BDFA0E48FDF7C4FA40B10520FEF7C2F804E00A487B
:204C40004FF4A061FDF79CFA50232380012010BD00230380032010BD0348FDF7AFFA0028DC
:204C6000E5D1012010BD00BFE40F002053B94AB9002908BF00281CBF4FF0FF314FF0FF30DF
:204C800000F06EB9ADF1080C6DE904CE00F006F8DDF804E0DDE9022304B070472DE9F047D9
:204CA000089D04468C46002B40F083808A42174647D9B2FA82F242B1C2F1200024FA00F098
:204CC0009140974040EA010C94404FEA1748230CBCFBF8F61FFA87FE08FB16C143EA0143CC
:204CE00006FB0EF1994209D9FB1806F1FF3080F01981994240F21681023E3B445B1AA4B286
:204D0000B3FBF8F008FB103344EA034400FB0EFEA64509D93C1900F1FF3380F00581A64515
:204D200040F2028102383C4440EA0640A4EB0E0400261DB1D4400023C5E900433146BDE8BB
:204D4000F08702B9FFDEB2FA82F2002A50D1CB1B4FEA174E1FFA87F80126B3FBFEFC210CC1
:204D60000EFB1C3341EA034108FB0CF38B4207D979180CF1FF3002D28B4200F2E98084463A
:204D8000C91AA3B2B1FBFEF00EFB101143EA014408FB00F8A04507D93C1900F1FF3302D299
:204DA000A04500F2D9801846A4EB080440EA0C40BFE78B4209D9002D00F0B1800026C5E9DD
:204DC000000130463146BDE8F087B3FA83F6002E4AD18B4202D3824200F2B880841A61EBE0
:204DE000030101208C46002DA8D0C5E9004CA5E7C2F1200320FA03F6974001FA02F04FEAAB
:204E0000174ED9403043030CB1FBFEF61FFA87F80EFB161143EA014306FB08F1994204FAE6
:204E200002F409D9FB1806F1FF3C80F08D80994240F28A80023E3B445B1A81B2B3FBFEF0BE
:204E40000EFB103341EA034100FB08F38B4207D9791800F1FF3C73D28B4271D90238394424
:204E6000CB1A40EA064678E7C6F1200C03FA06F422FA0CF31C4320FA0CF701FA06F34FEADA
:204E8000144E21FA0CF11F433B0CB1FBFEF91FFA84F80EFB191143EA014109FB08FA8A4540
:204EA00002FA06F200FA06F308D9611809F1FF3048D28A4546D9A9F102092144A1EB0A01DF
:204EC000BFB2B1FBFEF00EFB101147EA014700FB08F8B84507D9E71900F1FF312ED2B8452E
:204EE0002CD90238274440EA0940A7EB0807A0FB02894F45C64649461AD317D05DB1B3EB1F
:204F00000E0267EB010707FA0CFCF2404CEA0202F740C5E9002700263146BDE8F0872E4679
:204F200028460BE70646E9E61846FDE64345E5D2B8EB020E69EB04010138DFE70846D2E764
:204F400060468DE78146B9E7664675E730464AE7ACF1020C394413E702383C4424E700BF7B
:204F6000704700BF38B5104B1D68AB6B0446B3B9182000F095F80246A86320B90B4B0C4897
:204F8000422100F05DF80B490B4BC0E900130B4B83600B23838100210120C2E90401AB6B90
:204FA00000221C615A6138BD00000020886500009F6500000E33CDAB34126DE6ECDE050070
:204FC000174B10B51C68A36BB3B9182000F068F8A06328B90246134B13484E2100F030F8B8
:204FE000124A134BC0E90023124B83600B23838101220023C0E90423A16B0F480A694B6919
:205000000E4C504304FB0300A2FB04345A1C044444F10000C1E9042020F0004010BD00BF2F
:2050200000000020886500009F6500000E33CDAB34126DE6ECDE05002DF451582D7F954CE7
:205040001FB514461A46094B1B680546D8684CB1074B0091CDE9013406492B4600F00EF8DF
:2050600000F04AFF044B1C46F3E700BF000000201B66000028660000566600000EB403B548
:20508000014603AB054853F8042B0068019300F0B9F802B05DF804EB03B070470000002037
:2050A000024B0146186800F053B800BF0000002037B5002948D051F8043C0190002BA1F1FE
:2050C0000404B8BFE41800F085FD204A01981368154633B96360146003B0BDE8304000F02F
:2050E0007FBDA3420BD921686218934204BF1A685B68636004BF521822602C60ECE71A469A
:205100005B680BB1A342FAD911685518A5420BD1246821445418A3421160DDD11C685B6807
:20512000536021441160D7E702D90C230360D3E7256861198B4204BF19685B68636004BFA0
:20514000491921605460C7E703B030BDFC0F0020F8B5CD1C25F0030508350C2D38BF0C25EE
:20516000002D064601DBA94203D90C2333600020F8BD00F02FFD21490A6814469CB9204F66
:205180003B6823B92146304600F092FA38602946304600F08DFA431C23D10C2333603046B8
:2051A00000F01EFDE3E723685B1B17D40B2B03D923601C44256004E06368A2420CBF0B60EB
:2051C0005360304600F00CFD04F10B00231D20F00700C21ACCD01B1AA350C9E722466468D2
:2051E000CCE7C41C24F00304A042E3D0211A304600F05EFA0130DDD1CFE700BFFC0F0020F4
:20520000001000202DE9F04F0D469DB014469846064618B183690BB900F01EFC894B9D42AF
:205220001BD175686B6ED90705D4AB899A0502D4A86D00F09EFEAB891B0701D52B69EBB965
:205240002946304600F096FAC0B16B6EDC070ED54FF0FF301DB0BDE8F08F7B4B9D4201D103
:20526000B568DFE7794B9D4208BFF568DAE7AB899805EDD4A86D00F07DFEE9E70023099322
:2052800020238DF82930CDF80C803023DFF8C0818DF82A304FF0010923469A4613F8012B89
:2052A0000AB1252AF9D1BAEB040B0BD05B4622462946304600F0A1FD013000F0AA80099A21
:2052C0005A4409929AF80030002B00F0A28000234FF0FF32CDE905230AF1010A04930793EE
:2052E0008DF853301A935446052214F8011B5848FAF786FF049AD8B9D10644BF20238DF829
:205300005330130744BF2B238DF853309AF800302A2B15D0079A544600204FF00A0C214684
:2053200011F8013B303B092B4ED9B0B1079214E0A0EB080309FA03F313430493A246D2E757
:20534000039B191D1B680391002BBBBF5B4242F0020207930793B8BF049223782E2B0CD1D8
:2053600063782A2B35D1039B1A1D1B680392002BB8BF4FF0FF3302340593DFF8E4A0217835
:2053800003225046FAF73CFF40B14023A0EB0A0003FA00F0049B03430134049314F8011B77
:2053A0002C488DF828100622FAF72AFF00283FD0294B1BBB039B073323F007030833039333
:2053C000099B3B44099367E70CFB02320C460120A5E700230134059319464FF00A0C20467C
:2053E00010F8012B303A092A03D9002BC5D00591C3E70CFB012104460123F0E703AB009351
:205400002A46164B04A93046AFF300800746781CD6D16B6ED90705D4AB899A0502D4A86D9E
:2054200000F0A8FDAB895B063FF512AF099811E703AB00932A46094B04A9304600F012F892
:20544000E4E700BF486500006865000028650000576600006166000000000000FB5D0000DF
:205460005D6600002DE9FF470C469146277E0C99782F80469A4604F1430207D8622F0AD8C1
:20548000002F00F0D880582F00F0A38004F1420684F842703AE0A7F16303152BF6D801A0C9
:2054A00050F823F0FD540000115500008D5400008D5400008D5400008D54000011550000F0
:2054C0008D5400008D5400008D5400008D5400001D56000041550000FF5500008D5400000A
:2054E0008D5400003F5600008D540000415500008D5400008D540000075600000B681A1DF6
:205500001B680A6004F1420684F842300123A3E0256808682E0600F104030AD505680B60EC
:20552000002D03DA2D236D4284F843305E480A2319E015F0400F05680B6018BF2DB2EFE7EF
:205540000B682568181D0860280601D51D6802E06906FBD51D8854486F2F0CBF08230A2302
:20556000002184F843106668A660002EA2BF216821F0040121600DB9002E4DD01646B5FB9B
:20558000F3F103FB1157C75D06F8017D2F46BB420D46F4D9082B0BD12368DF0708D52369A6
:2055A00061689942DEBF302306F8013C06F1FF36921B2261CDF800A04B4603AA2146404630
:2055C00000F02DFC01304CD14FF0FF3004B0BDE8F087354884F8457023680E681F0656F804
:2055E000045B0E6014D5D90744BF43F0200323601DB9236823F0200323601023B0E72368CA
:2056000043F0200323607823284884F84530E3E75E0648BFADB2E6E71646BBE70B68266855
:2056200060691D1D0D6035061B6801D5186002E07106FBD51880002323611646BAE70B6816
:205640001A1D0A601E68626800213046FAF7D8FD08B1801B606063682361002384F8433087
:20566000A8E72369324649464046D0470130ABD023689B0713D4E068039B9842B8BF184616
:20568000A4E70123324649464046D04701309BD00135E36803995B1AAB42F2DCEBE70025D7
:2056A00004F11906F5E700BF686600007966000038B5064D0023044608462B60FEF76CF9AE
:2056C000431C02D12B6803B1236038BD5C100020F8B50E461446054618B183690BB900F03E
:2056E000BBF9214B9C422BD16C68A369A360A3891A072FD523696BB323692068C01A636918
:20570000F6B28342374604DC2146284600F026F930BBA368013BA36023685A1C22601E7095
:2057200063690130834204D0A389DB0706D50A2E04D12146284600F011F988B93846F8BD9A
:205740000A4B9C4201D1AC68CFE7094B9C4208BFEC68CAE72146284600F00CF80028CBD0F0
:205760004FF0FF37EAE700BF486500006865000028650000324B70B51D6806460C4625B182
:20578000AB6913B9284600F067F92E4B9C420FD16C68A389B4F90C2019072CD4DD0611D473
:2057A0000923336042F04003A3814FF0FF303EE0254B9C4201D1AC68EBE7244B9C4208BFEB
:2057C000EC68E6E7580712D5616B41B104F14403994202D03046FFF76BFC00236363A389D3
:2057E00023F02403A3810023636023692360A38943F00803A38123694BB9A38903F4207382
:20580000B3F5007F03D02146304600F0A3F9A089B4F90C2010F001030AD00023A360636953
:205820005B42A361236943B910F08000BAD170BD810758BF6369A360F4E70020F7E700BF01
:20584000000000204865000068650000286500008A892DE9F041054610070C4658D44B6834
:20586000002B05DC0B6C002B02DC0020BDE8F081E66A002EF9D0002312F480522F682B6002
:2058800032D0606DA3895A0705D56368C01A636B0BB1236CC01A00230246E66A216A284686
:2058A000B047431CA38906D129681D292CD82A4ACA40D60728D500226260D904226922608E
:2058C00004D5421C01D12B6803B96065616B2F600029CAD004F14403994202D02846FFF740
:2058E000E7FB00206063C1E7216A01232846B047411CC7D12B68002BC4D01D2B01D0162B86
:2059000001D12F60B1E7A38943F04003A381ADE70F69002FA9D093070E6808BF4B690F601A
:2059200018BF0023A6EB07088B60B8F1000F9CDD216AA66A43463A462846B047002806DC9E
:20594000A38943F04003A3814FF0FF308EE70744A8EB0008E9E700BF0100402038B50B6967
:2059600005460C4613B90025284638BD18B183690BB900F071F8144B9C421BD16C68B4F9BA
:205980000C30002BEFD0626ED00704D4990502D4A06D00F0EEFA28462146FFF759FF636E15
:2059A000DA070546E0D4A3899B05DDD4A06D00F0E1FAD9E7054B9C4201D1AC68DFE7044BC9
:2059C0009C4208BFEC68DAE7486500006865000028650000002310B50446C0E90033C0E94F
:2059E0000433836081814366C2818361194608225C3000F0BDF9054B6362054BA362054B46
:205A0000E362054B2462236310BD00BF13600000356000006D60000091600000014900F059
:205A200088BA00BF5D590000014800F0A2BA00BF6D100020014800F09DBA00BF6D100020D2
:205A4000014800F096BA00BF68100020014800F091BA00BF6810002010B50446FFF7F0FF97
:205A6000A3691BB1BDE81040FFF7F0BFC4E912332365134B134A1B68A262A34204BF01232C
:205A8000A361204600F020F86060204600F01CF8A060204600F018F80022E06004216068B5
:205AA000FFF798FFA06801220921FFF793FFE06802221221FFF78EFF0123A361D2E700BFBA
:205AC000B06000001D5A0000F8B50746FFF7ACFF1E4B1E68B36913B93046FFF7BDFF483627
:205AE000D6E90134013B03D533680BB33668F7E7B4F90C50D5B9164BE36004F15800656676
:205B000000F036FAFFF796FFC4E90155C4E904552560A5610822294604F15C0000F028F94B
:205B2000C4E90D55C4E912552046F8BD6834D9E70421384600F0E7F9044630600028D5D1B0
:205B4000FFF778FF0C233B60EEE700BFB06000000100FFFF8B8973B59D0706460C4607D511
:205B600004F14703236023610123636102B070BD01AB6A4600F0FFF9009905463046FFF784
:205B8000E7FA48B9B4F90C309A05EFD423F0030343F00203A381E3E70D4BB362A389206080
:205BA00043F08003A381009B6361019B20615BB1B4F90E10304600F067F828B1A38923F0DB
:205BC000030343F00103A381A0890543A581CDE71D5A0000014800F0CCB900BF691000208C
:205BE000014800F0C7B900BF69100020024B0146186800F0E4B900BF0000002038B5074DD3
:205C000000230446084611462B6000F091F8431C02D12B6803B1236038BD00BF5C10002032
:205C200038B5074D04460846114600222A601A4600F096F8431C02D12B6803B1236038BDB9
:205C40005C10002038B5064D0023044608462B6000F04EF8431C02D12B6803B1236038BD0B
:205C60005C10002038B5074D00230446084611462B6000F045F8431C02D12B6803B1236091
:205C800038BD00BF5C10002038B5064D0023044608462B6000F044F8431C02D12B6803B199
:205CA000236038BD5C10002038B5074D04460846114600222A601A4600F042F8431C02D148
:205CC0002B6803B1236038BD5C10002038B5074D04460846114600222A601A4600F038F81D
:205CE000431C02D12B6803B1236038BD5C100020024B58221A604FF0FF3070475C10002035
:205D0000024B58221A604FF0FF3070475C100020024B58221A604FF0FF3070475C1000209F
:205D2000024B58221A600020704700BF5C100020024B58221A604FF0FF3070475C1000200E
:205D4000024B58221A604FF0FF3070475C100020024B58221A604FF0FF3070475C1000205F
:205D6000024B58221A604FF0FF3070475C10002002440346934200D1704703F8011BF9E74E
:205D800030B501390024A24201D1002005E0035D01340D5DAB42F6D0581B30BD0A449142D2
:205DA00000F1FF3300D1704710B511F8014B03F8014F9142F9D110BD10F8012B11F8013BF0
:205DC000012A28BF9A42F7D0D01A70479368013B002B10B4936008DA9469A34201DB0A2981
:205DE00003D15DF8044BFFF773BC1368581C1060197008465DF8044B7047F8B506460F4627
:205E00001446D518AC4201D1002007E014F8011B3A463046FFF7DAFF431CF3D1F8BD2DE999
:205E2000F047164699468A680B69DDF820809342B8BF1346336091F8432007460C460AB197
:205E4000013333602368990642BF336802333360256815F0060506D104F1190AE36832687C
:205E60009B1AAB4226DC94F84320131E226818BF012392062BD404F1430249463846C047F4
:205E800001301ED02368E568326803F00603042B08BFAD1AA36822690CBF25EAE5750025C9
:205EA0009342C4BF9B1AED1800261A34B5421AD1002008E00123524649463846C047013071
:205EC00003D14FF0FF30BDE8F0870135C6E7E1185A1C302081F84300224494F8451082F845
:205EE00043100233C7E70123224649463846C0470130E6D00136D9E708B50620FFF776FEA1
:205F00000120FAF763FA70B54A1E682555430E4605F17401FFF71CF9044640B10021C0E991
:205F200000160C30A06005F16802FFF721FF204670BD2DE9F8430646884600F14804002737
:205F4000D4E90195B9F1010905D52468002CF7D13846BDE8F883AB89012B07D9B5F90E3016
:205F6000013303D029463046C04707436835E9E770477047704770B50E46B1F90E100029E8
:205F800096B014461D4607DA00232B60B3891A0610D44FF480630EE06A46FFF763FE0028EC
:205FA000F2DB019A02F47042A2F500535A425A412A60EEE740230020236016B070BD1F2910
:205FC00038B504460D4604D9162303604FF0FF3038BD426C12B152F821304BB9204600F0F5
:205FE00016F82A4601462046BDE83840FFF706BE012B0AD0591C03D1162303600120E7E7C5
:20600000002442F82540284698470020E0E7FFF77FBE10B50C46B1F90E10FFF757FE002804
:20602000ABBF636DA3891B1823F48053ACBF6365A38110BD2DE9F0411F468B89DB050546CE
:206040000C46164605D5B1F90E1002230022FFF72BFEA389B4F90E1023F48053A38132460D
:206060003B462846BDE8F041FFF7DABD10B50C46B1F90E10FFF718FE431CA38915BF6065BF
:2060800023F4805343F48053A38118BFA38110BDB1F90E10FFF7D6BDF8B500BFF8BC08BCEB
:2060A0009E467047F8B500BFF8BC08BC9E467047040000200D00010E00010F000110000164
:2060C000427574746F6E203400000000427574746F6E203300000000427574746F6E203253
:2060E00000000000427574746F6E20310000000054656D706572617475726500F0600000F5
:2061000081040000690400007D040000FF0006000000000000B000400B0003000100000008
:20612000D0070000060000006E524635323834302049454545000000455252005B252D3477
:20614000733A20252D3130735D200000546F6F206C6F6E673A2025752062797465732C2046
:206160006D61782025750A0054583A20746F6F206C6F6E6720282575206279746573290A91
:20618000000000006E5246353238343020494545452052462064726976657200D50F000076
:2061A000B10C0000ED0E0000C10F0000590B0000C90D0000410A000061100000A10D0000B3
:2061C0007508000085080000250E0000A90A0000B10900004D61696E00000000494E464F64
:2061E000000000005374617274696E6720436F6E74696B692D4E472D72656C656173652F63
:2062000076342E362D35312D673966323931333863302D64697274790A0000002D20526F9F
:206220007574696E673A2025730A00002D204E65743A2025730A00002D204D41433A20252E
:20624000730A00002D203830322E31352E342050414E49443A203078253034780A0000004B
:206260002D203830322E31352E342044656661756C74206368616E6E656C3A2025750A0065
:206280004E6F64652049443A2025750A000000004C696E6B2D6C61796572206164647265D5
:2062A00073733A20000000004374696D65722070726F6365737300004576656E742074691C
:2062C0006D657200284E554C4C204C4C20616464722900002E00000025303278000000004E
:2062E000537461636B000000436865636B20696E20696E636F6E73697374656E742073748B
:206300006174653A20256C642076732E20256C640A000000436865636B206661696C65643B
:206320003A20256C642076732E20256C640A0000537461636B20636865636B0053656E730B
:206340006F727300427574746F6E2048414C2070726F63657373000053657269616C206475
:20636000726976657200000000000000000000002135000019350000113300003031323347
:206380003435363738396162636465660000000030313233343536373839414243444546BF
:2063A0000000000030580000307800002D0000002B00000020000000286E756C6C29000029
:2063C000250000002020202020202020202020202020202030303030303030303030303058
:2063E0003030303043534D4100000000E46300009D450000ED440000F14400009544000051
:20640000A1440000AD4400006E756C6C6E65740008640000AD4900000D4A0000B9490000E9
:206420006E756C6C726F7574696E670020640000594A00005D4A0000614A0000954A000041
:20644000654A0000694A0000A54A00006D4A0000994A0000714A0000854A0000754A000008
:206460009D4A0000794A0000A14A0000894A00007D4A00008D4A0000914A0000814A000070
:2064800073686B616C61726D000000004170700053484B414C41524D3A2025732C2025646E
:2064A0002C2025640A00000062746E616C61726D0000000042544E414C41524D2C20257377
:2064C0002C2025642C2025640A0000004C45442053484B2068616E646C696E672070726F57
:2064E00063657373000000004C45442042544E2068616E646C696E672070726F6365737391
:2065000000000000436C69636B6572206261736573746174696F6E0088020020A80200208D
:206520009802002000000000000000000000000000000000000000000000000000000000A1
:2065400000000000000000000000000000000000000000000000000000000000000000003B
:2065600000000000000000000000000000000000000000000000000000000000000000001B
:2065800000000000000000005245454E54206D616C6C6F6320737563636565646564002FF1
:2065A0006D6E742F776F726B73706163652F776F726B73706163652F4743432D392D706928
:2065C00070656C696E652F6A656E6B696E732D4743432D392D706970656C696E652D3230AB
:2065E000305F32303230303532315F313539303035333337342F7372632F6E65776C6962F5
:206600002F6E65776C69622F6C6962632F7374646C69622F72616E642E63002C2066756E56
:206620006374696F6E3A2000617373657274696F6E2022257322206661696C65643A2066CA
:20664000696C6520222573222C206C696E65202564257325730A00232D302B2000686C4C42
:2066600000656667454647003031323334353637383941424344454600303132333435360F
:2066800037383961626364656600000000000000509CFF7F0100000004000020000000006E
:2066A0004865000068650000286500000000000000000000000000000000000000000000D3
:2066C0000000000000000000000000000000000000000000000000000000000000000000BA
:2066E00000000000000000000000000000000000000000000000000000000000000000009A
:20670000000000000000000000000000000000000000000000000000000000000000000079
:2067200000000000000000000000000000000000000000000000000000000000E460000015
:2067400001000B00010000000000000000000000000000000000000000000000000000002C
:20676000000000000000000000000000000000000000000000000000000000000000000019
:20678000000000000000000000000000D860000001000C00010000000001000000000000B2
:2067A0000000000000000000000000000000000000000000000000000000000000000000D9
:2067C00000000000000000000000000000000000000000000000000000000000CC6000008D
:2067E00001001800010000000002000000000000000000000000000000000000000000007D
:20680000000000000000000000000000000000000000000000000000000000000000000078
:20682000000000000000000000000000C06000000100190001000000000300006400002096
:20684000B4000020040100205401002000000000FC60000000000000000000008461000089
:20686000410C00000000000000001A01021402140090D00300000000A86200007D1E00007C
:206880000000000000000000B86200004D20000000000000030000000000000030630000DB
:2068A0005D26000000000000000000003C6300000D270000000000000000000044630000DB
:2068C000252A0000000000000000000058630000812C00000000000004000800900700203E
:2068E00070070020AC000800F80C0020980700207010002039440000000000000C00080039
:20690000E00E0020800E0020380002005C0F0020EC0E00200C000800C00F0020600F00204A
